{
  "contractName": "GSElection",
  "abi": [
    {
      "inputs": [],
      "stateMutability": "nonpayable",
      "type": "constructor"
    },
    {
      "anonymous": false,
      "inputs": [
        {
          "indexed": true,
          "internalType": "uint256",
          "name": "candidateId",
          "type": "uint256"
        },
        {
          "indexed": false,
          "internalType": "string",
          "name": "candidateName",
          "type": "string"
        }
      ],
      "name": "CandidateAdded",
      "type": "event"
    },
    {
      "anonymous": false,
      "inputs": [
        {
          "indexed": true,
          "internalType": "address",
          "name": "userAddress",
          "type": "address"
        },
        {
          "indexed": false,
          "internalType": "bool",
          "name": "isAdmin",
          "type": "bool"
        }
      ],
      "name": "UserAdded",
      "type": "event"
    },
    {
      "anonymous": false,
      "inputs": [
        {
          "indexed": true,
          "internalType": "address",
          "name": "userAddress",
          "type": "address"
        },
        {
          "indexed": true,
          "internalType": "uint256",
          "name": "candidateId",
          "type": "uint256"
        }
      ],
      "name": "Voted",
      "type": "event"
    },
    {
      "inputs": [],
      "name": "admin",
      "outputs": [
        {
          "internalType": "address",
          "name": "",
          "type": "address"
        }
      ],
      "stateMutability": "view",
      "type": "function"
    },
    {
      "inputs": [
        {
          "internalType": "uint256",
          "name": "",
          "type": "uint256"
        }
      ],
      "name": "candidates",
      "outputs": [
        {
          "internalType": "string",
          "name": "name",
          "type": "string"
        },
        {
          "internalType": "uint256",
          "name": "voteCount",
          "type": "uint256"
        }
      ],
      "stateMutability": "view",
      "type": "function"
    },
    {
      "inputs": [],
      "name": "currentRound",
      "outputs": [
        {
          "internalType": "uint256",
          "name": "",
          "type": "uint256"
        }
      ],
      "stateMutability": "view",
      "type": "function"
    },
    {
      "inputs": [
        {
          "internalType": "address",
          "name": "",
          "type": "address"
        }
      ],
      "name": "users",
      "outputs": [
        {
          "internalType": "address",
          "name": "userAddress",
          "type": "address"
        },
        {
          "internalType": "bool",
          "name": "isAdmin",
          "type": "bool"
        },
        {
          "internalType": "bool",
          "name": "hasVoted",
          "type": "bool"
        }
      ],
      "stateMutability": "view",
      "type": "function"
    },
    {
      "inputs": [
        {
          "internalType": "string",
          "name": "_candidateName",
          "type": "string"
        }
      ],
      "name": "addCandidate",
      "outputs": [],
      "stateMutability": "nonpayable",
      "type": "function"
    },
    {
      "inputs": [
        {
          "internalType": "address",
          "name": "_userAddress",
          "type": "address"
        },
        {
          "internalType": "bool",
          "name": "_isAdmin",
          "type": "bool"
        }
      ],
      "name": "addUser",
      "outputs": [],
      "stateMutability": "nonpayable",
      "type": "function"
    },
    {
      "inputs": [
        {
          "internalType": "uint256",
          "name": "_candidateId",
          "type": "uint256"
        }
      ],
      "name": "vote",
      "outputs": [],
      "stateMutability": "nonpayable",
      "type": "function"
    },
    {
      "inputs": [
        {
          "internalType": "uint256",
          "name": "_candidateId",
          "type": "uint256"
        }
      ],
      "name": "getCandidateName",
      "outputs": [
        {
          "internalType": "string",
          "name": "",
          "type": "string"
        }
      ],
      "stateMutability": "view",
      "type": "function"
    },
    {
      "inputs": [
        {
          "internalType": "uint256",
          "name": "_candidateId",
          "type": "uint256"
        }
      ],
      "name": "getCandidateVoteCount",
      "outputs": [
        {
          "internalType": "uint256",
          "name": "",
          "type": "uint256"
        }
      ],
      "stateMutability": "view",
      "type": "function"
    },
    {
      "inputs": [],
      "name": "getNumCandidates",
      "outputs": [
        {
          "internalType": "uint256",
          "name": "",
          "type": "uint256"
        }
      ],
      "stateMutability": "view",
      "type": "function"
    },
    {
      "inputs": [
        {
          "internalType": "address",
          "name": "_userAddress",
          "type": "address"
        }
      ],
      "name": "hasUserVoted",
      "outputs": [
        {
          "internalType": "bool",
          "name": "",
          "type": "bool"
        }
      ],
      "stateMutability": "view",
      "type": "function"
    }
  ],
  "bytecode": "0x608060405234801561001057600080fd5b5033600360006101000a81548173ffffffffffffffffffffffffffffffffffffffff021916908373ffffffffffffffffffffffffffffffffffffffff16021790555061152f806100616000396000f3fe608060405234801561001057600080fd5b50600436106100a95760003560e01c80638a19c8bc116100715780638a19c8bc14610165578063a87430ba14610183578063ab2b3a80146101b5578063b315c597146101d1578063e13804a714610201578063f851a44014610231576100a9565b80630121b93f146100ae5780633477ee2e146100ca578063462e91ec146100fb5780635c06b06e146101175780637fabe80a14610135575b600080fd5b6100c860048036038101906100c39190610b26565b61024f565b005b6100e460048036038101906100df9190610b26565b610498565b6040516100f2929190610bf2565b60405180910390f35b61011560048036038101906101109190610d57565b610554565b005b61011f610693565b60405161012c9190610da0565b60405180910390f35b61014f600480360381019061014a9190610e19565b61069f565b60405161015c9190610e61565b60405180910390f35b61016d6106f8565b60405161017a9190610da0565b60405180910390f35b61019d60048036038101906101989190610e19565b6106fe565b6040516101ac93929190610e8b565b60405180910390f35b6101cf60048036038101906101ca9190610eee565b610762565b005b6101eb60048036038101906101e69190610b26565b610943565b6040516101f89190610da0565b60405180910390f35b61021b60048036038101906102169190610b26565b6109b8565b6040516102289190610f2e565b60405180910390f35b610239610ab6565b6040516102469190610f50565b60405180910390f35b6000339050600160008273ffffffffffffffffffffffffffffffffffffffff1673ffffffffffffffffffffffffffffffffffffffff16815260200190815260200160002060000160149054906101000a900460ff16156102e4576040517f08c379a00000000000000000000000000000000000000000000000000000000081526004016102db90610fb7565b60405180910390fd5b600160008273ffffffffffffffffffffffffffffffffffffffff1673ffffffffffffffffffffffffffffffffffffffff16815260200190815260200160002060000160159054906101000a900460ff1615610374576040517f08c379a000000000000000000000000000000000000000000000000000000000815260040161036b90611023565b60405180910390fd5b60008054905082106103bb576040517f08c379a00000000000000000000000000000000000000000000000000000000081526004016103b29061108f565b60405180910390fd5b600082815481106103cf576103ce6110af565b5b906000526020600020906002020160010160008154809291906103f19061110d565b919050555060018060008373ffffffffffffffffffffffffffffffffffffffff1673ffffffffffffffffffffffffffffffffffffffff16815260200190815260200160002060000160156101000a81548160ff021916908315150217905550818173ffffffffffffffffffffffffffffffffffffffff167f4d99b957a2bc29a30ebd96a7be8e68fe50a3c701db28a91436490b7d53870ca460405160405180910390a35050565b600081815481106104a857600080fd5b90600052602060002090600202016000915090508060000180546104cb90611184565b80601f01602080910402602001604051908101604052809291908181526020018280546104f790611184565b80156105445780601f1061051957610100808354040283529160200191610544565b820191906000526020600020905b81548152906001019060200180831161052757829003601f168201915b5050505050908060010154905082565b600360009054906101000a900473ffffffffffffffffffffffffffffffffffffffff1673ffffffffffffffffffffffffffffffffffffffff163373ffffffffffffffffffffffffffffffffffffffff16146105e4576040517f08c379a00000000000000000000000000000000000000000000000000000000081526004016105db90611227565b60405180910390fd5b6000604051806040016040528083815260200160008152509080600181540180825580915050600190039060005260206000209060020201600090919091909150600082015181600001908161063a91906113f3565b50602082015181600101555050600160008054905061065991906114c5565b7fe83b2a43e7e82d975c8a0a6d2f045153c869e111136a34d1889ab7b598e396a3826040516106889190610f2e565b60405180910390a250565b60008080549050905090565b6000600160008373ffffffffffffffffffffffffffffffffffffffff1673ffffffffffffffffffffffffffffffffffffffff16815260200190815260200160002060000160159054906101000a900460ff169050919050565b60025481565b60016020528060005260406000206000915090508060000160009054906101000a900473ffffffffffffffffffffffffffffffffffffffff16908060000160149054906101000a900460ff16908060000160159054906101000a900460ff16905083565b600360009054906101000a900473ffffffffffffffffffffffffffffffffffffffff1673ffffffffffffffffffffffffffffffffffffffff163373ffffffffffffffffffffffffffffffffffffffff16146107f2576040517f08c379a00000000000000000000000000000000000000000000000000000000081526004016107e990611227565b60405180910390fd5b60405180606001604052808373ffffffffffffffffffffffffffffffffffffffff168152602001821515815260200160001515815250600160008473ffffffffffffffffffffffffffffffffffffffff1673ffffffffffffffffffffffffffffffffffffffff16815260200190815260200160002060008201518160000160006101000a81548173ffffffffffffffffffffffffffffffffffffffff021916908373ffffffffffffffffffffffffffffffffffffffff16021790555060208201518160000160146101000a81548160ff02191690831515021790555060408201518160000160156101000a81548160ff0219169083151502179055509050508173ffffffffffffffffffffffffffffffffffffffff167f14778f8292173445fc922e2677340a598077ca143bafbe0699efb3e77f542a8c826040516109379190610e61565b60405180910390a25050565b60008080549050821061098b576040517f08c379a00000000000000000000000000000000000000000000000000000000081526004016109829061108f565b60405180910390fd5b6000828154811061099f5761099e6110af565b5b9060005260206000209060020201600101549050919050565b60606000805490508210610a01576040517f08c379a00000000000000000000000000000000000000000000000000000000081526004016109f89061108f565b60405180910390fd5b60008281548110610a1557610a146110af565b5b90600052602060002090600202016000018054610a3190611184565b80601f0160208091040260200160405190810160405280929190818152602001828054610a5d90611184565b8015610aaa5780601f10610a7f57610100808354040283529160200191610aaa565b820191906000526020600020905b815481529060010190602001808311610a8d57829003601f168201915b50505050509050919050565b600360009054906101000a900473ffffffffffffffffffffffffffffffffffffffff1681565b6000604051905090565b600080fd5b600080fd5b6000819050919050565b610b0381610af0565b8114610b0e57600080fd5b50565b600081359050610b2081610afa565b92915050565b600060208284031215610b3c57610b3b610ae6565b5b6000610b4a84828501610b11565b91505092915050565b600081519050919050565b600082825260208201905092915050565b60005b83811015610b8d578082015181840152602081019050610b72565b60008484015250505050565b6000601f19601f8301169050919050565b6000610bb582610b53565b610bbf8185610b5e565b9350610bcf818560208601610b6f565b610bd881610b99565b840191505092915050565b610bec81610af0565b82525050565b60006040820190508181036000830152610c0c8185610baa565b9050610c1b6020830184610be3565b9392505050565b600080fd5b600080fd5b7f4e487b7100000000000000000000000000000000000000000000000000000000600052604160045260246000fd5b610c6482610b99565b810181811067ffffffffffffffff82111715610c8357610c82610c2c565b5b80604052505050565b6000610c96610adc565b9050610ca28282610c5b565b919050565b600067ffffffffffffffff821115610cc257610cc1610c2c565b5b610ccb82610b99565b9050602081019050919050565b82818337600083830152505050565b6000610cfa610cf584610ca7565b610c8c565b905082815260208101848484011115610d1657610d15610c27565b5b610d21848285610cd8565b509392505050565b600082601f830112610d3e57610d3d610c22565b5b8135610d4e848260208601610ce7565b91505092915050565b600060208284031215610d6d57610d6c610ae6565b5b600082013567ffffffffffffffff811115610d8b57610d8a610aeb565b5b610d9784828501610d29565b91505092915050565b6000602082019050610db56000830184610be3565b92915050565b600073ffffffffffffffffffffffffffffffffffffffff82169050919050565b6000610de682610dbb565b9050919050565b610df681610ddb565b8114610e0157600080fd5b50565b600081359050610e1381610ded565b92915050565b600060208284031215610e2f57610e2e610ae6565b5b6000610e3d84828501610e04565b91505092915050565b60008115159050919050565b610e5b81610e46565b82525050565b6000602082019050610e766000830184610e52565b92915050565b610e8581610ddb565b82525050565b6000606082019050610ea06000830186610e7c565b610ead6020830185610e52565b610eba6040830184610e52565b949350505050565b610ecb81610e46565b8114610ed657600080fd5b50565b600081359050610ee881610ec2565b92915050565b60008060408385031215610f0557610f04610ae6565b5b6000610f1385828601610e04565b9250506020610f2485828601610ed9565b9150509250929050565b60006020820190508181036000830152610f488184610baa565b905092915050565b6000602082019050610f656000830184610e7c565b92915050565b7f41646d696e732063616e6e6f7420766f74650000000000000000000000000000600082015250565b6000610fa1601283610b5e565b9150610fac82610f6b565b602082019050919050565b60006020820190508181036000830152610fd081610f94565b9050919050565b7f557365722068617320616c726561647920766f74656400000000000000000000600082015250565b600061100d601683610b5e565b915061101882610fd7565b602082019050919050565b6000602082019050818103600083015261103c81611000565b9050919050565b7f496e76616c69642063616e646964617465204944000000000000000000000000600082015250565b6000611079601483610b5e565b915061108482611043565b602082019050919050565b600060208201905081810360008301526110a88161106c565b9050919050565b7f4e487b7100000000000000000000000000000000000000000000000000000000600052603260045260246000fd5b7f4e487b7100000000000000000000000000000000000000000000000000000000600052601160045260246000fd5b600061111882610af0565b91507fffffffffffffffffffffffffffffffffffffffffffffffffffffffffffffffff820361114a576111496110de565b5b600182019050919050565b7f4e487b7100000000000000000000000000000000000000000000000000000000600052602260045260246000fd5b6000600282049050600182168061119c57607f821691505b6020821081036111af576111ae611155565b5b50919050565b7f4f6e6c792061646d696e2063616e2063616c6c20746869732066756e6374696f60008201527f6e00000000000000000000000000000000000000000000000000000000000000602082015250565b6000611211602183610b5e565b915061121c826111b5565b604082019050919050565b6000602082019050818103600083015261124081611204565b9050919050565b60008190508160005260206000209050919050565b60006020601f8301049050919050565b600082821b905092915050565b6000600883026112a97fffffffffffffffffffffffffffffffffffffffffffffffffffffffffffffffff8261126c565b6112b3868361126c565b95508019841693508086168417925050509392505050565b6000819050919050565b60006112f06112eb6112e684610af0565b6112cb565b610af0565b9050919050565b6000819050919050565b61130a836112d5565b61131e611316826112f7565b848454611279565b825550505050565b600090565b611333611326565b61133e818484611301565b505050565b5b818110156113625761135760008261132b565b600181019050611344565b5050565b601f8211156113a75761137881611247565b6113818461125c565b81016020851015611390578190505b6113a461139c8561125c565b830182611343565b50505b505050565b600082821c905092915050565b60006113ca600019846008026113ac565b1980831691505092915050565b60006113e383836113b9565b9150826002028217905092915050565b6113fc82610b53565b67ffffffffffffffff81111561141557611414610c2c565b5b61141f8254611184565b61142a828285611366565b600060209050601f83116001811461145d576000841561144b578287015190505b61145585826113d7565b8655506114bd565b601f19841661146b86611247565b60005b828110156114935784890151825560018201915060208501945060208101905061146e565b868310156114b057848901516114ac601f8916826113b9565b8355505b6001600288020188555050505b505050505050565b60006114d082610af0565b91506114db83610af0565b92508282039050818111156114f3576114f26110de565b5b9291505056fea2646970667358221220c7c24beab806101dea78941f319a81770a7144c0d130d58678e51853278ce74e64736f6c63430008120033",
  "immutableReferences": {},
  "source": "pragma solidity 0.8.18;\r\n\r\ncontract GSElection {\r\n    // Define the data structure for a candidate\r\n    struct Candidate {\r\n        string name;\r\n        uint256 voteCount;\r\n    }\r\n\r\n    // Define the data structure for a user\r\n    struct User {\r\n        address userAddress;\r\n        bool isAdmin;\r\n        bool hasVoted; // New field to track whether the user has voted\r\n    }\r\n\r\n    // Define the candidates array\r\n    Candidate[] public candidates;\r\n\r\n    // Define the users mapping\r\n    mapping(address => User) public users;\r\n\r\n    // Define the current round\r\n    uint256 public currentRound;\r\n\r\n    // Define the event for when a candidate is added\r\n    event CandidateAdded(uint256 indexed candidateId, string candidateName);\r\n\r\n    // Define the event for when a user is added\r\n    event UserAdded(address indexed userAddress, bool isAdmin);\r\n\r\n    // Define the event for when a user votes\r\n    event Voted(address indexed userAddress, uint256 indexed candidateId);\r\n\r\n    // Admin address\r\n    address public admin;\r\n\r\n    // Constructor to set the admin\r\n    constructor() {\r\n        admin = msg.sender;\r\n    }\r\n\r\n    // Modifier to restrict access to only admin\r\n    modifier onlyAdmin() {\r\n        require(msg.sender == admin, \"Only admin can call this function\");\r\n        _;\r\n    }\r\n\r\n    // Add a candidate to the candidates array\r\n    function addCandidate(string memory _candidateName) public onlyAdmin {\r\n        candidates.push(Candidate(_candidateName, 0));\r\n        emit CandidateAdded(candidates.length - 1, _candidateName);\r\n    }\r\n\r\n    // Add a user to the users mapping\r\n    function addUser(address _userAddress, bool _isAdmin) public onlyAdmin {\r\n        users[_userAddress] = User(_userAddress, _isAdmin, false); // Set hasVoted to false by default\r\n        emit UserAdded(_userAddress, _isAdmin);\r\n    }\r\n\r\n    // Allow a user to vote for a candidate\r\n    function vote(uint256 _candidateId) public {\r\n        address userAddress = msg.sender;\r\n        require(!users[userAddress].isAdmin, \"Admins cannot vote\");\r\n        require(!users[userAddress].hasVoted, \"User has already voted\");\r\n        require(_candidateId < candidates.length, \"Invalid candidate ID\");\r\n\r\n        candidates[_candidateId].voteCount++;\r\n        users[userAddress].hasVoted = true;\r\n        emit Voted(userAddress, _candidateId);\r\n    }\r\n\r\n    // Get the name of a candidate\r\n    function getCandidateName(uint256 _candidateId) public view returns (string memory) {\r\n        require(_candidateId < candidates.length, \"Invalid candidate ID\");\r\n        return candidates[_candidateId].name;\r\n    }\r\n\r\n    // Get the vote count of a candidate\r\n    function getCandidateVoteCount(uint256 _candidateId) public view returns (uint256) {\r\n        require(_candidateId < candidates.length, \"Invalid candidate ID\");\r\n        return candidates[_candidateId].voteCount;\r\n    }\r\n\r\n    // Get the number of candidates\r\n    function getNumCandidates() public view returns (uint256) {\r\n        return candidates.length;\r\n    }\r\n\r\n    // Check if the user has voted\r\n    function hasUserVoted(address _userAddress) public view returns (bool) {\r\n        return users[_userAddress].hasVoted;\r\n    }\r\n}\r\n",
  "sourcePath": "D:\\be4thsem\\proj\\contracts\\GSElection.sol",
  "compiler": {
    "name": "solc",
    "version": "0.8.18+commit.87f61d96.Emscripten.clang"
  },
  "schemaVersion": "3.4.16",
  "updatedAt": "2024-03-05T14:30:15.132Z",
  "devdoc": {
    "kind": "dev",
    "methods": {},
    "version": 1
  },
  "userdoc": {
    "kind": "user",
    "methods": {},
    "version": 1
  }
}